S02B0000433A5C55736572735C65726E6573746F5C446F63756D656E74735C495445534F5C32646F5F53656DBA
S224400000682B4020350D400065274000ED274000012840001928400035284000000000007F
S224400020000000000000000000000000CD0D4000CD0D400000000000CD0D40001D294000A7
S224400040CD0D4000CD0D4000CD0D4000CD0D4000CD0D4000CD0D4000CD0D4000CD0D40008B
S224400060CD0D400000000000CD0D4000CD0D4000CD0D4000CD0D4000CD0D4000CD0D400085
S224400080CD0D4000CD0D4000CD0D4000CD0D4000CD0D4000CD0D4000CD0D4000CD0D40004B
S2244000A0CD0D4000CD0D4000CD0D4000CD0D4000CD0D4000CD0D4000CD0D4000CD0D40002B
S2244000C0CD0D4000CD0D4000CD0D4000CD0D4000CD0D4000CD0D4000CD0D4000CD0D40000B
S2244000E0CD0D4000CD0D4000CD0D4000CD0D4000CD0D4000CD0D4000E5204000CD0D4000C0
S224400100CD0D4000CD0D4000CD0D4000CD0D4000CD0D4000CD0D40000000000000000000FE
S224400120CD0D4000CD0D4000CD0D4000CD0D4000CD0D400000000000CD0D4000CD0D4000C4
S22440014080B400AFBFF34F8FBFF36F8F084B0022C3F85022064A064B5B6943F40033536112
S224400160BFF34F8FBFF36F8FBD465DF8047B704700ED00E080B500AF00F08EFDFFF7E0FF6B
S22440018002F092FE02F09AFF00F07EFA00F0B0FA044802F0DFFF0120034903F037F800F070
S2244001A0E7FBFCE7B00140200400402080B483B000AF374B4FF4A0621A60364B1B6A7B6088
S2244001C07A68354B13437B60324A7B681362334B5B6903F08003002B09D1304B304A1A6047
S2244001E000BF2E4B5B6903F08003002BF9D0294B1B6A03F08073002B09D1264B294A1A6210
S22440020000BF244B9B6E03F00103002BF9D0214B254A1A6200BF1F4B9B6E03F48033002B19
S224400220F9D01C4A1B4B1B6B23F0030343F00103136300BF174B9B6E03F00803002BF9D07C
S224400240144B1A4A9A6200BF124B9B6E03F00203002BF9D00F4B40F201121A6300BF0D4B56
S2244002609B6E03F00803002BF9D00A4B4FF481721A6300BF074B9B6E03F00803002BF9D02A
S2244002800B4B0C4A1A600C37BD465DF8047B7047000C0E4000060E400000370410180E40C3
S2244002A0080000A50908370009083701013F18200C00402000A3E11180B400AF514B1B6B3D
S2244002C003F00303012B14D0012B02D3022B38D07BE04D4B5B6903F08003002B04D04B4BD8
S2244002E04FF400421A6070E0484B4FF4FA421A606BE0444B1B6A03F08073002B03D0434B0D
S224400300434A1A601CE0414B424A1A603D4B1B6A03F07003102B04D0202B08D0002B0ED055
S2244003200EE03A4B1B685B00384A136008E0374B1A6813465B001344344A136000E000BFAB
S22440034043E0304B1B6A03F08073002B03D02F4B2F4A1A601CE02D4B2E4A1A60294B1B6A85
S22440036003F07003102B04D0202B08D0002B0ED00EE0264B1B685B00244A136008E0234B23
S2244003801A6813465B001344204A136000E000BF1C4B1B6B03F00303022B15D1194B9A6AAE
S2244003A01D4B13401B0C0133184A126802FB03F3164A1360134B9B6ADBB2144A1268B2FBCB
S2244003C0F3F3124A1360FFE700BF0E4B1B6B03F07003702B08D10D4B1B68104AA2FB0323CD
S2244003E05B080A4A136009E0064B1B6B03F070031A09064B1B68D340044A1360BD465DF845
S224400400047B704700060E4010180E400C004020001BB70000093D000000FF07ABAAAAAA64
S22440042080B483B000AF78607B68184A934204D8174B4FF080621A6023E07B68154A93427C
S22440044003D8134B144A1A601BE07B68134A934203D80F4B124A1A6013E07B68114A934225
S22440046003D80B4B104A1A600BE07B680F4A934204D8074B4FF004221A6002E0044B0C4AA2
S2244004801A600C37BD465DF8047B70477FBA8C01000C0E40FF741903000100047F2FA604C0
S2244004A000020004FFE9320600030004BFE6CE070005000480B400AF0C4B20225A600B4BBB
S2244004C04FF47102DA6100BF084B9B6E03F04003002BF9D0054B40F601129A63034B20227B
S2244004E01A60BD465DF8047B704700BF00060E4080B400AF0A4B20225A60094B4FF471025E
S224400500DA6100BF064B9B6E03F04003002BF9D0034B40F601129A63BD465DF8047B7047F6
S22440052000060E4080B485B000AF78600B4B1B68002B02D1094B0A4A1A60084B1B68FB6008
S224400540064B1A687B681344044A1360FB6818461437BD465DF8047B704700BF940A402031
S224400560682B402080B483B000AF786039604FF0FF3318460C37BD465DF8047B704700BF5D
S22440058080B483B000AF78604FF0FF3318460C37BD465DF8047B704780B483B000AF78609A
S2244005A039603B684FF400525A60002318460C37BD465DF8047B704780B483B000AF78602B
S2244005C0012318460C37BD465DF8047B704700BF80B485B000AFF860B9607A6000231846E0
S2244005E01437BD465DF8047B704700BF80B485B000AFF860B9607A60002318461437BD46EC
S2244006005DF8047B704700BF80B586B000AFF860B9607A6000237B610AE0BB681B781846E9
S22440062000F0FEFC7B6901337B61BB680133BB607A697B689A42F0DB7B6918461837BD4624
S22440064080BD00BF80B582B000AF78600248796802F072FEFEE700BF7098400080B483B08B
S22440066000AF7860396000BF0C37BD465DF8047B704700BF80B400AF4FF0FF331846BD4611
S2244006805DF8047B704700BF80B400AF0F4B00221A700F4B0C221A700E4B0C221A700E4B66
S2244006A00C221A700D4B00221A600D4B00221A700C4B00221A700C4B00221A700B4B0022C7
S2244006C01A70BD465DF8047B704700BF0A0B40200B0B4020020B40200C0B4020040B4020C0
S2244006E0080B4020000B4020090B4020010B402080B500AF4FF4FA60054902F0F3F8034602
S224400700002B00D0FEE7034B01221A7080BD00BF710A4000010B402080B400AF034BAA2299
S2244007201A70BD465DF8047B704700BF010B402080B483B000AF78607B681A78044B1A70F5
S2244007407B6801221A720C37BD465DF8047B70470B0B402080B582B000AF78607B68022286
S2244007601A727B681A78074B1A70074A7B6813607B685B6898477B6800221A720837BD4658
S22440078080BD00BF020B4020040B402080B400AF034B1B681846BD465DF8047B704700BFDD
S2244007A0040B402080B483B000AF78607B6801221A720C37BD465DF8047B704780B483B0CD
S2244007C000AF78607B6802221A727B681A78054B1A70054A7B6813600C37BD465DF8047BAC
S2244007E0704700BF020B4020040B402080B485B000AF78600B46FB701346BB700123BB73E0
S2244008000023FB7335E0FA7B1F4913465B0013449B000B445B68002B28D1FA7B1A49134603
S2244008205B0013449B000B447A685A60FA7B164913465B0013449B000B44FA781A70FA7B01
S224400840114913465B0013449B000B440833BA785A70FA7B0C4913465B0013449B000B440E
S224400860083301221A700023BB7305E0FB7B0133FB73FB7B042BC6D9BB7B18461437BD46D7
S2244008805DF8047B704700BF5800402080B582B000AFFFF77BFF0246314B1A60304B1B684F
S2244008A01846FFF77FFF72B60023FB7114E0F979FA792C480B465B000B449B0018442A49B8
S2244008C013465B0013449B00CA18034607CA83E80700FB790133FB71FB79042BE7D962B630
S2244008E00023FB7131E0FA791E4913465B0013449B000B445B68002B24D0FA791949134634
S2244009005B0013449B000B4408335A78144B1B685B7A9A4216D3FA7913465B0013449B0054
S224400920104A13441846FFF715FF72B6FA790E4913465B0013449B000B440C4A07CA83E8E0
S224400940070062B6FB790133FB71FB79042BCAD9034B1B681846FFF731FF0837BD4680BD05
S224400960A00A402094004020580040208C98400080B500AF354B1B78002B03D0334B1B7812
S224400980052B1BD1314B1A78314B1A703148FFF7E1FE2E4B1B78052B02D12F48FFF7DAFE40
S2244009A02B4B1A78294B1B789A4203D1274B0C221A704AE0294B02221A7046E0234B1B7896
S2244009C0012B03D0214B1B78042B1BD11F4B1A781F4B1A702248FFF7BDFE1C4B1B78042B85
S2244009E002D12048FFF7B6FE194B1A78174B1B789A4203D1154B0C221A7026E0174B03228D
S224400A001A7022E0114B1B78022B03D00F4B1B78032B1AD10D4B1A780D4B1A701248FFF7F4
S224400A2099FE0A4B1B78032B02D11048FFF792FE074B1A78054B1B789A4203D1034B0C2220
S224400A401A7002E0054B04221A7080BD0B0B40200C0B4020100040204C004020010B402033
S224400A601C00402040004020280040203400402080B500AF2B4B1B780133DAB2294B1A704E
S224400A80284B1B7803F00103002B14D0264B1B780133DAB2244B1A70234B1B78632B06D9DA
S224400AA02248FFF745FE204B00221A7038E02048FFF73EFE34E01B4B1B7803F00203002B55
S224400AC014D01C4B1B780133DAB21A4B1A70194B1B78182B06D91848FFF72AFE154B00222B
S224400AE01A701DE01548FFF723FE19E00D4B1B7803F00303002B13D1114B1B780133DAB21B
S224400B000F4B1A700E4B1B78042B06D90D48FFF70FFE0B4B00221A7002E00B48FFF708FE27
S224400B2080BD00BF0A0B4020090B40204C00402010004020000B4020400040201C004020E8
S224400B40080B4020340040202800402080B483B000AF0346FB71084997F907305B09FA7907
S224400B6002F01F02012000FA02F241F823200C37BD465DF8047B704700E100E080B483B099
S224400B8000AF0346FB71094997F907305B09FA7902F01F02012000FA02F2203341F82320CB
S224400BA00C37BD465DF8047B704700BF00E100E080B483B000AF0346FB71094997F90730BB
S224400BC05B09FA7902F01F02012000FA02F2603341F823200C37BD465DF8047B704700BF38
S224400BE000E100E080B483B000AF03463960FB7197F90730002B0BDA0D49FB7903F00F03E5
S224400C00043B3A68D2B25201D2B20B441A7609E0084997F907303A68D2B25201D2B20B4427
S224400C2083F800230C37BD465DF8047B704700BF00ED00E000E100E080B584B000AF7860C3
S224400C40786800F037FD0346FB60FB681A04FB681A430B4B13430B48194600F0F3FC042005
S224400C60FFF78CFF0420FFF7A3FF04200021FFF7B9FF0420FFF76AFF1037BD4680BD00BF36
S224400C800010003050180E4080B500AF014800F0F5FC80BD50180E4080B500AF014800F0FB
S224400CA0DFFC80BD50180E4080B500AFFFF7EEFD80BD00BF80B500AFFFF7E8FD80BD00BFA5
S224400CC080B500AFFFF7E2FD80BD00BF80B500AF02F0F4F8FFF7DAFD80BD00BF80B500AFAB
S224400CE0FFF7D4FD80BD00BF80B500AFFFF7CEFD80BD00BF80B400AFBFF34F8FBFF36F8F28
S224400D000B4A0B4BD3F8903223F00103C2F89032074A074BD3F8943223F00103C2F89432F8
S224400D20BFF34F8FBFF36F8FBD465DF8047B704700ED00E080B582B000AF1A4B7B601A4B18
S224400D403B607A683B689A420CD007E03B681A1D3A607A68111D796012681A603B68134A3E
S224400D609342F3D3124B3B6004E03B681A1D3A6000221A603B680F4A9342F6D30E4B7B60D9
S224400D800E4A7B6823F07F0393600D4B0D4A5A600B4B0D4A5A60FFF7ADFF00F0E1F8FFF71A
S224400DA0E9F9FEE7589D4000000040208C0A40208C0A4020680B40200000400000ED00E0C6
S224400DC0000C0E400C08005A0C07005A80B400AFFEE700BF80B582B000AFBFF35F8F112328
S224400DE07B604A4801F082FC0246494B13433B607868396801F068FC464B7B60464801F044
S224400E0075FC0246454B13433B607868396801F05BFC434B7B603D4801F068FC02463C4B78
S224400E2013433B607868396801F04EFC3D4B7B603D4801F05BFC02463C4B13433B607868F0
S224400E40396801F041FC3A4B7B603A4801F04EFC0246364B13433B607868396801F034FC05
S224400E60354B7B606FF0604001F040FC0246334B13433B607868396801F026FC304B7B6005
S224400E806FF0704001F032FC02462E4B13433B607868396801F018FC2B4B7B606FF0704047
S224400EA001F024FC0246294B13433B607868396801F00AFC264B7B606FF0604001F016FC69
S224400EC00246204B13433B607868396801F0FCFB204B7B60204801F009FC0246174B13431C
S224400EE03B607868396801F0EFFB1C4A1B4B5B6A43F4E0235362052001F0BCFBBFF34F8FD9
S224400F00BFF36F8F0837BD4680BD00BFFFFF3F000100000112004000FFFF1F0001002306C6
S224400F201300002014004020FFFF03000100230315004420FFFF01001600004001000113BA
S224400F4017000060010000031800007001002503190000801A0010A0FFFF0F0000ED00E0E3
S224400F6080B500AFFFF722F9FFF734FF80BD00BFB0B58AB000AF78603960234B07F10C04DD
S224400F801D460FCD0FC495E8030084E803001F4B7B621F4B1F4AC3F8E4211D4A1C4BD3F898
S224400FA0143143F01003C2F8143107F10C031846022101F0F7F97B6A4FF486721A607B6A7A
S224400FC04FF0FF32DA600E2000F0FAFB3A687B68B2FBF3F31A097B6A1A627B6A4FF40C62DD
S224400FE05A607B6A50221A600B4B01221A700B4B1B689B68184600210222002302F0B8F9D9
S2244010002837BD46B0BD00BF9898400000800240008008400054414DA90A40201806402090
S22440102080B584B000AF0346FB710F4BFB600F4B1B78002B04D14FF4E1300D49FFF798FFC5
S22440104000BFFB685B6903F40073002BF9D0FA79FB68DA6100BFFB685B6903F40073002B7B
S224401060F9D01037BD4680BD00800240A90A402080D1F00880B582B000AF0C4B7B600C4B1E
S2244010801B78002B04D14FF4E1300A49FFF770FF00BF7B685B6903F00103002BF9D07B6838
S2244010A09B6918460837BD4680BD00BF00800240A90A402080D1F00880B582B000AF094BC3
S2244010C07B60094B1B78002B04D14FF4E1300749FFF74EFF7B685B6903F0010318460837E7
S2244010E0BD4680BD00800240A90A402080D1F00880B584B000AF786039600023FB600AE05C
S2244011007A68FB6813441B780848194602F014F9FB680133FB60FA683B689A42F0D30448CB
S22440112002F00AF91037BD4680BD00BFB0984000B898400090B58BB002AFF860B9607A609B
S2244011400023FB6146E0FB691A017B6813444D48194602F0F1F8FB691B01FA6813447B6108
S2244011600023BB6118E07B691B7819467B6901331B781A467B6902331B781C467B690333EA
S2244011801B7800934048234602F0D6F87B6904337B61BB690133BB61BB69032BE3D9FB6956
S2244011A01B01FA6813447B610023BB6109E07B695A1C7A611B781846FFF732FFBB6901336C
S2244011C0BB61BB690F2BF2D9304802F0B5F8FB690133FB61BB681A09FB699A42B3D8BB6846
S2244011E003F00F03002B49D0BB6823F00F033B617A683B6913442348194602F09DF83B69AB
S224401200BB611EE0BA693B699A4207D0BB6903F00303002B02D1202002F0A2F8BA69BB68C8
S2244012209A4208D2FA68BB6913441B781848194602F082F802E0174802F07EF8BB69013317
S224401240BB613B6903F11002BB699A42DAD8202002F086F83B69BB6109E0FA68BB6913449B
S2244012601B781846FFF7DCFEBB690133BB61BA69BB689A42F1D3054802F05EF82437BD461B
S22440128090BD00BFBC984000C8984000B8984000DC984000E498400080B586B000AF7860D7
S2244012A00023FB7500233B610123FB60FFF7E2FE0346FB72FB7A1846FFF7B2FEFB7A2D2B46
S2244012C002D0FB7A2B2B0FD1FB7D002B0CD1FB7A2D2B03D14FF0FF33FB6001E00123FB60FF
S2244012E0FB7D0133FB7533E0FB7A2F2B10D9FB7A392B0DD83A6913469B0013445B001A465B
S224401300FB7A303B13443B61FB7D0133FB751FE0FB7A0D2B02D0FB7A202B12D1FB7D002BD5
S22440132004D10E4802F008F8002312E00C4802F003F83B69FA6802FB03F27B681A6001237C
S22440134007E0FB7A0748194601F0F6FF002300E0ACE718461837BD4680BD00BFE898400056
S224401360B89840001899400080B586B000AFF860B9607A6000237B6107F114031846FFF7E0
S2244013808BFF0346002B01D1002315E07A69BB689A4203DB7A697B689A4206DD0848B9686A
S2244013A07A6801F0C9FF002306E0064801F0C4FF7A69FB681A60012318461837BD4680BD71
S2244013C03C994000B898400080B586B000AF786000237B6100233B6100237B6136E0FFF768
S2244013E049FE0346FB73FB7B1846FFF719FEFB7B2F2B09D9FB7B392B06D83B691A01FB7B2A
S2244014001344303B3B611EE0FB7B402B09D9FB7B462B06D83B691A01FB7B1344373B3B6109
S22440142011E0FB7B602B09D9FB7B662B06D83B691A01FB7B1344573B3B6104E00A4801F0CD
S2244014407BFF00230CE07B6901337B617B69072BC5D9064801F070FF7B683A691A60012344
S22440146018461837BD4680BD68994000B898400080B582B000AF786007E07B681B781846C0
S224401480FFF7CEFD7B6801337B607B681B78002BF3D1002318460837BD4680BD80B584B086
S2244014A000AF78600023FB730CE0FFF7E3FD0346FB73FB7B1846FFF7B3FD7B685A1C7A60A9
S2244014C0FA7B1A70FB7B0D2BEFD17B6800221A70002318461037BD4680BD00BF80B582B09D
S2244014E000AF786002227B68934201D300230BE07A6813465B0013449B00054A13441846D6
S224401500012100F04FFF034618460837BD4680BD9099400080B582B000AF786002227B68A2
S224401520934201D3002320E012497A6813465B0013449B000B4408335B78052B0AD17A686D
S22440154013465B0013449B000A4A1344184600F0DBFF09E07A6813465B0013449B00054A0D
S2244015601344184600F0DEFF012318460837BD4680BD00BF9099400080B582B000AF78608D
S22440158002227B68934201D3002320E012497A6813465B0013449B000B4408335B78052BC3
S2244015A00AD17A6813465B0013449B000A4A1344184600F0B7FF09E07A6813465B001344FE
S2244015C09B00054A1344184600F09EFF012318460837BD4680BD00BF9099400080B582B00A
S2244015E000AF786002227B68934201D3002322E07A6813465B0013449B00114A13441846B2
S22440160000F0C2FF0346002B0AD07A6813465B0013449B000A4A1344184600F083FF09E09A
S2244016207A6813465B0013449B00054A1344184600F06AFF012318460837BD4680BD00BFC0
S2244016409099400080B483B000AF786039607B683A685A600C37BD465DF8047B704700BF86
S22440166080B483B000AF78607B684FF400425A600C37BD465DF8047B704700BF80B483B01E
S22440168000AF78607B68034A1A600C37BD465DF8047B7047010000A580B483B000AF78606F
S2244016A07B689B6803F0030318460C37BD465DF8047B704780B483B000AF78607B68032BD8
S2244016C003D97B68B3F57A5F01D9002305E07B681B02054AA2FB03239B0918460C37BD4649
S2244016E05DF8047B704700BFD34D621080B400AF094A094B1B6B23F0030343F002031363F2
S22440170000BF054B9B6E03F00803002BF9D0BD465DF8047B704700BF00060E4080B400AFF6
S2244017200E4A0E4B1B6B23F0030343F00103136300BF0A4B9B6E03F00803002BF9D0074B06
S22440174001221A6300BF054B9B6E03F00803002BF9D0BD465DF8047B704700BF00060E40F9
S22440176080B400AF084A084B1B6B23F00303136300BF054B9B6E03F00803002BF9D0BD467A
S2244017805DF8047B704700BF00060E4080B483B000AF78600949094B1B6B23F070027B68E4
S2244017A013430B6300BF054B9B6E03F00803002BF9D00C37BD465DF8047B704700060E40F1
S2244017C080B582B000AF78607B683E2B05D91C489C211C4A1C4B01F07DFD7B681F2B13D83B
S2244017E01A4B9A697B68012101FA03F31A407B68012101FA03F39A421ED0144A7B680121C9
S22440180001FA03F3136117E07B68203B7B600F4BD3F808217B68012101FA03F31A407B688D
S224401820012101FA03F39A4206D0084A7B68012101FA03F3C2F800310837BD4680BD00BF2D
S224401840AC994000289A4000049A400000060E4080B582B000AF78607B683E2B05D91C480E
S224401860BA211C4A1C4B01F035FD7B681F2B13D81A4B9A697B68012101FA03F31A407B68A5
S224401880012101FA03F39A421ED1144A7B68012101FA03F3536117E07B68203B7B600F4BB3
S2244018A0D3F808217B68012101FA03F31A407B68012101FA03F39A4206D1084A7B6801219F
S2244018C001FA03F3C2F804310837BD4680BD00BFAC994000409A4000049A400000060E40D4
S2244018E080B400AF0D4B6FF003021A6100BF0B4B9B6923F0030313F1040FF8D1074B4FF0E6
S224401900FF32C3F8002100BF044BD3F80831B3F1FF3FF9D1BD465DF8047B704700060E40D5
S22440192080B400AF0C4B6FF003025A6100BF0A4B9B6923F00303002BF9D1074B4FF0FF3221
S224401940C3F8042100BF044BD3F80831002BFAD1BD465DF8047B704700060E4080B582B011
S22440196000AF78607B683F2B05D90F48F1210F4A0F4B01F0AFFC7B681F2B07D80D4B9B6950
S2244019807A68012101FA02F2134008E0094BD3F808317A68203A114601228A40134018464B
S2244019A00837BD4680BD00BFAC994000589A4000109A400000060E4080B483B000AF1B4B33
S2244019C01B6A7B607B6823F070037B607A68184B13437B60154A7B68136200BF134B9B6ECB
S2244019E003F40033002BF9D000BF104B9B6E03F00803002BF9D07B6843F080737B600B4A36
S224401A007B68136200BF094B9B6E03F48033002BF9D000BF054B9B6E03F00803002BF9D065
S224401A200C37BD465DF8047B704700BF00060E402908370080B483B000AF0C4B1B6A7B6048
S224401A407B6823F001037B60084A7B6843F45C13136200BF054B9B6E03F00803002BF9D012
S224401A600C37BD465DF8047B704700BF00060E4080B500AF164B1B6A03F08073002B02D090
S224401A8000F0A8F822E01249114B1A6A114B13430B6200BF0E4B5B6A03F48033002BF9D09A
S224401AA00B490B4B1A6A0C4B13430B6200BF084B9B6E03F48033002BF9D000BF044B9B6EC9
S224401AC003F00803002BF9D000F084F880BD00BF00060E40010037000000370180B483B03C
S224401AE000AF164B1B6A03F00203002B21D1134B134A1A621149114B1A6A124B13430B6266
S224401B0000BF0E4B9B6E03F48033002BF9D000237B6002E07B6801337B607B684FF6FE7257
S224401B209342F7D900BF054B5B6A03F48033002BF9D00C37BD465DF8047B704700060E4024
S224401B400AFF37000000370180B483B000AF78601C491C4B1A6A1C4B13430B6200BF194B3D
S224401B609B6E03F40033002BF9D01649154B1A6A164B13407A68134343F45C130B6200BFF8
S224401B80104B9B6E03F40033002BF9D00D490D4B1A6A0F4B134043F45C130B6200BF094B79
S224401BA09B6E03F48033002BF9D000BF054B9B6E03F00803002BF9D00C37BD465DF8047B15
S224401BC0704700BF00060E40080037008FFFC8FFFFFFC8FE80B483B000AF0E4B1B6A7B60CF
S224401BE07B6823F070037B607B6823F008037B60084A7B6843F45C13136200BF054B9B6E18
S224401C0003F00803002BF9D00C37BD465DF8047B704700BF00060E4080B483B000AF7860BB
S224401C2039607B68002B13D00E497B68013B1A040D4B13403A68D2B21A430C4B13438B6279
S224401C4000BF084B9B6E03F00203002BF9D003E0044B4FF000529A620C37BD465DF8047B5F
S224401C60704700BF00060E400000FF070001002080B582B000AF786039607B68012B0AD0BE
S224401C80012B02D3022B0CD011E0FFF769FD3868FFF77CFD0BE0FFF741FD3868FFF776FD71
S224401CA005E03868FFF772FDFFF720FD00BF0837BD4680BD80B582B000AF0F4B4FF4FE42B1
S224401CC05A60FFF72BFD0C490B4B9A6A0B4B13408B62FFF745FD084B1B6A7B607A68084B82
S224401CE0134043F45C137B60034A7B681362FFF717FE0837BD4680BD00060E40FFFF00F852
S224401D00F7FFC8FF80B584B000AFF860B9607A60FFF704FDF868B968FFF77EFF00BF064B63
S224401D209B6E03F00803002BF9D002207968FFF79FFF1037BD4680BD00060E4080B483B08A
S224401D4000AF074B1B6A7B607A68064B13437B60034A7B6813620C37BD465DF8047B704703
S224401D6000060E400000370480B483B000AF78603960104B4FF480725A6000BF0D4B9B68A4
S224401D8003F48073002BF9D10A497A683B6813430B64084B4FF480721A6000BF054B9B6E68
S224401DA003F48073002BF9D00C37BD465DF8047B704700BF00060E4080B483B000AF78602E
S224401DC03960104B4FF400725A6000BF0D4B9B6803F40073002BF9D10A497A683B681343B4
S224401DE04B64084B4FF400721A6000BF054B9B6E03F40073002BF9D00C37BD465DF8047BDD
S224401E00704700BF00060E4080B483B000AF78603960104B4FF480625A6000BF0D4B9B68D8
S224401E2003F48063002BF9D10A497A683B6813438B64084B4FF480621A6000BF054B9B6E67
S224401E4003F48063002BF9D00C37BD465DF8047B704700BF00060E4080B485B000AFF8601B
S224401E60B9607A603B600E4ABB691360FB684FF4D6721A60FB684FF0FF32DA60FB68BA68A6
S224401E805A603A687B68B2FBF3F31A09FB681A62FB6850221A601437BD465DF8047B704701
S224401EA0100B402080B483B000AF78600B46FB70FB78002B03D07B6840221A6002E07B68C3
S224401EC080221A600C37BD465DF8047B704700BF80B483B000AF78600B46FB70FB78002BC9
S224401EE003D07B6810221A6002E07B6820221A600C37BD465DF8047B704700BF80B483B0C3
S224401F0000AF78607B685B6903F0010318460C37BD465DF8047B704780B582B000AF78603A
S224401F2000BF7868FFF7EAFF0346002BF9D07B689B69DBB218460837BD4680BD80B483B0E9
S224401F4000AF78607B685B6903F0020318460C37BD465DF8047B704780B483B000AF7860F9
S224401F607B685B6903F4007318460C37BD465DF8047B704780B582B000AF78600B46FB7032
S224401F8000BF7868FFF7BAFF0346002B05D17868FFF7E2FF0346002BF3D0FA787B68DA61E6
S224401FA000BF7868FFF7D8FF0346002BF9D00837BD4680BD80B483B000AF78600B46FB700A
S224401FC0FA787B68DA610C37BD465DF8047B704780B483B000AF78607B685B6918460C3725
S224401FE0BD465DF8047B704780B483B000AF786039607B683A689A600C37BD465DF8047BEE
S224402000704700BF80B483B000AF786039607B683A68DA600C37BD465DF8047B704700BF2F
S22440202080B483B000AF78607B681B6918460C37BD465DF8047B704780B586B000AFF86065
S224402040B9607A60BB687B6100233B6100233B610BE07B691B78F8681946FFF78BFF7B6946
S22440206001337B613B6901333B613A697B689A42EFD31837BD4680BD80B586B000AFF86072
S224402080B9607A6000237B6100237B610CE0F868FFF742FF03461A46BB681A70BB680133DA
S2244020A0BB607B6901337B617A697B689A42EED31837BD4680BD00BF80B483B000AF78602D
S2244020C00B46FB701346BB70FA78BB781B0403F47F031A437B685A620C37BD465DF8047B28
S2244020E0704700BF80B582B000AF104B7B607868FFF76EFF38603B6803F00103002B05D064
S2244021007B689B69DBB2184601F02AF93B6803F00203002B06D0064B1B68002B02D0044BD8
S2244021201B6898470837BD4680BD00BF001E0E40100B402080B487B000AFF860B9601346EF
S224402140FB71FB68BA685A64FB79002B03D0FB68BA685A6602E0FB68BA681A66FB681B6F00
S2244021607B61FB681A6FBB68D9437B690B401A40FB681A67FB685B6F7B61FB685A6FBB684E
S224402180D9437B690B401A40FB685A67FB68BA685A601C37BD465DF8047B704780B487B0A6
S2244021A000AFF860B9601346FB71FB68BA685A64FB79002B03D0FB68BA685A6602E0FB68B6
S2244021C0BA681A66FB681B6F7B61BA687B691A43FB681A67FB685B6F7B61FB685A6FBB68B0
S2244021E0D9437B690B401A40FB685A67FB68BA685A601C37BD465DF8047B704780B487B046
S22440220000AFF860B9601346FB71FB68BA685A64FB79002B03D0FB68BA685A6602E0FB6855
S224402220BA681A66FB681B6F7B61FB681A6FBB68D9437B690B401A40FB681A67FB685B6F29
S2244022407B61BA687B691A43FB685A67FB68BA685A601C37BD465DF8047B704780B487B04B
S22440226000AFF860B9601346FB71FB68BA685A64FB79002B03D0FB68BA685A6602E0FB68F5
S224402280BA681A66FB681B6F7B61BA687B691A43FB681A67FB685B6F7B61BA687B691A43DB
S2244022A0FB685A67FB68BA685A601C37BD465DF8047B704780B485B000AFF860B9601346B3
S2244022C0FB71FB68BA685A64FB7903F00103002B03D0FB68BA685A6602E0FB68BA681A6675
S2244022E0FB7903F00A03002B03D0FB68BA681A6202E0FB68BA685A62FB7903F00203002B6C
S22440230004D0FB68BA68C3F8802008E0FB7903F00803002B03D0FB68BA68C3F88420FB6825
S224402320BA685A61FB68BA681A601437BD465DF8047B704780B485B000AFF860B9601146C3
S2244023401A460B46FB711346BB71FB68BA685A643B7E002B03D0FB68BA685A6602E0FB6812
S224402360BA681A66BB79002B03D0FB68BA681A6502E0FB68BA685A65FB79002B03D0FB6845
S224402380BA681A6302E0FB68BA685A63FB68BA681A61FB68BA681A601437BD465DF8047B14
S2244023A0704700BFB0B584B002AF78603960A1E07B685B7A062B00F2958001A252F823F036
S2244023C0DD23400003244000292440004F2440007524400097244000972440007B6859685E
S2244023E07B681A687B689B7A03F00103002B14BF01230023DBB2084611461A46FFF79AFEDF
S22440240072E07B6859687B681A687B689B7A03F00103002B14BF01230023DBB208461146B6
S2244024201A46FFF7BBFE5FE07B6859687B681A687B689B7A03F00103002B14BF01230023CC
S224402440DBB2084611461A46FFF7D8FE4CE07B6859687B681A687B689B7A03F00103002B8A
S22440246014BF01230023DBB2084611461A46FFF7F5FE39E07B681B7A1846FFF7A1F97B6820
S22440248059687B681A687B689B7A084611461A46FFF710FF28E07B6859687B681A687B68DB
S2244024A05B7A062B0CBF01230023DBB21D467B689B7A03F00403002B14BF01230023DBB20B
S2244024C01C467B689B7A03F00103002B14BF01230023DBB20093084611462A462346FFF78D
S2244024E029FF01E000230AE07B680C337B603B68013B3B603B68002B7FF45AAF012318463E
S2244025000837BD46B0BD00BF80B483B000AF78607B685B687A6812681A630C37BD465DF800
S224402520047B704780B483B000AF78607B685B687A6812685A630C37BD465DF8047B7047A2
S22440254080B485B000AF78607B685B7A052B03D07B685B7A062B04D17B685B689B6BFB60C6
S22440256003E07B685B68DB6BFB607B681A68FB681340002B01D1002300E001231846143704
S224402580BD465DF8047B704780B483B000AF78607B685B689A6B7B681B681340002B01D119
S2244025A0002300E0012318460C37BD465DF8047B704700BF80B485B000AF786039607B6855
S2244025C05B68FB607B681A68FB68C3F884203B685B0047F6A672B2FBF3F3013BC3F30D028A
S2244025E0FB68C3F88C201437BD465DF8047B704780B485B000AF78607B685B68FB60FB689F
S224402600034AC3F8E4201437BD465DF8047B7047014F495080B485B000AF78607B685B6811
S224402620FB60FB68034AC3F8E4201437BD465DF8047B7047004F495080B485B000AF7860DA
S2244026407B685B68FB60FB68D3F8E83018461437BD465DF8047B704780B483B000AF7860C9
S2244026600B46FB707B68FA785A720C37BD465DF8047B704780B483B000AF7860034A7B6849
S22440268053600C37BD465DF8047B704790ED00E080B483B000AF7860034A7B6893600C37C0
S2244026A0BD465DF8047B704790ED00E080B400AF044A044B1B6923F001031361BD465DF803
S2244026C0047B704790ED00E080B483B000AF78603960054A7B68D360034A3B6813610C378F
S2244026E0BD465DF8047B704790ED00E080B485B000AF78602023FB600423BB600AE07A680E
S224402700FB689A4200D808E0BB680133BB60FB685B00FB60BB681E2BF1D9BB685B001846D8
S2244027201437BD465DF8047B704700BF80B584B000AFF860B9607A6072B6BFF34F8FBFF3EF
S2244027406F8FF868FFF7A4FFFFF7B0FFB8687968FFF7BAFFBFF34F8FBFF36F8F62B6103749
S224402760BD4680BD80B400AFFEE700BF80B483B000AF1C4BDB6A1B4BDB6A1A4BDB6A03F043
S2244027808043002B1BD0174B9A6A174B1340002B05D0144B9B6A7B607B681B0C7B60114B80
S2244027A09B6A03F47F43002B09D00E4B9B6A7B607B681B0A7B607B6803F08003002B094B1E
S2244027C09B6ADBB2002B02D0064B9B6A7B60BFF36F8FBFF35F8F01BE0C37BD465DF8047BCB
S2244027E0704700BF00ED00E00000FFFF80B500AFBFF36F8FBFF35F8FFFF7B8FF80BD00BF76
S22440280080B400AFBFF36F8FBFF35F8F01BEBD465DF8047B704700BF80B400AF00BF00BFD3
S224402820BFF36F8FBFF35F8F01BEBD465DF8047B704700BF80B400AFBFF36F8FBFF35F8FC4
S22440284001BEBD465DF8047B704700BF80B483B000AF03463960FB7197F90730002B0BDAEC
S2244028600D49FB7903F00F03043B3A68D2B25201D2B20B441A7609E0084997F907303A6886
S224402880D2B25201D2B20B4483F800230C37BD465DF8047B704700BF00ED00E000E100E08D
S2244028A080B582B000AF78607B68013BB3F1807F01D301230FE00A4A7B68013B53604FF0D7
S2244028C0FF300721FFF7C2FF054B00229A60044B07221A60002318460837BD4680BD00BF88
S2244028E010E000E080B582B000AF78603960094A3B681360084B1A687B68B2FBF3F318462A
S224402900FFF7CEFF0346DBB25BB218460837BD4680BD00BFB40A40200C00402080B500AFC2
S224402920034B1B68002B02D0014B1B68984780BDB40A402080B588B000AFF8607A603B6092
S2244029400B46FB720A237B610023FB72FB685B6803F48073002B59D1FB685B6803F0040356
S224402960002B05D1FB685B6803F00603062B0BD1FB681B6C7A6802FB03F33A68B2FBF3F3EE
S224402980FB610023BB6141E03DE0FB7AC3F102031A467B6803FB02F3DB003A68B2FBF3F3A5
S2244029A0FB61FB7AC3F102031A467B6803FB02F33A68B2FBF3F2FB69DB00D31ABB61FB6932
S2244029C0DA00BB6913443A68B2FBF3F3FA7AC2F10202B3FBF2F33B617B68642202FB03F273
S2244029E03B69B2FBF3F3C3F164037B617B69052B09D9FB7A0133FB72FB7A012B03D91C4877
S224402A0000F09AFC02E07B69052BBED8FB685B6803F00E030E2B05D0FB685B6803F4807317
S224402A20002B11D0FB685B6803F03003002B0BD13A687B68B2FBF3F3FB613A687B68B2FB4C
S224402A40F3F2FB69D31ABB61FB699AB2BB691B0403F4E0231A43FB681A62FB685B68FA7A1C
S224402A60D2041A43FB685A602037BD4680BD00BF6C9A400080B584B000AFF860B9607A60C2
S224402A803B60FB684FF4D6721A60FB684FF0FF32DA60FB68BA685A60F86800217A683B689C
S224402AA0FFF748FFFB6850221A60064B1B689B68184600210222002300F05AFC1037BD4618
S224402AC080BD00BF1806402080B483B000AF78600B46FB70FB78002B03D07B6840221A605D
S224402AE002E07B6880221A600C37BD465DF8047B704700BF80B483B000AF78607B6820220D
S224402B001A600C37BD465DF8047B704780B483B000AF78607B6880221A600C37BD465DF89D
S224402B20047B704780B483B000AF78607B6810221A600C37BD465DF8047B704780B483B065
S224402B4000AF78607B6840221A600C37BD465DF8047B704780B483B000AF78607B68242202
S224402B601A600C37BD465DF8047B704780B483B000AF78607B6888221A600C37BD465DF835
S224402B80047B704780B483B000AF78600B46FB70FB78002B03D07B6810221A6002E07B684B
S224402BA020221A600C37BD465DF8047B704700BF80B483B000AF78600B46FB70FB78002B3C
S224402BC004D07B684FF480221A6003E07B684FF400221A600C37BD465DF8047B704700BF65
S224402BE080B584B000AFF8600B467A607B817B68002B07D100BFFB685B6903F40073002B98
S224402C00F9D010E009E07B68002B03D1094800F093FB0BE07B68013B7B60FB685B6903F419
S224402C200073002BEFD07A89FB68DA611037BD4680BD00BF8C9A400080B582B000AF7860B7
S224402C4039603B68002B07D100BF7B685B6903F00103002BF9D011E00AE03B68002B04D121
S224402C600A4800F069FB00230BE03B68013B3B607B685B6903F00103002BEED07B689B6973
S224402C809BB218460837BD4680BD00BFAC9A400080B483B000AF78607B685B6903F00103F4
S224402CA0002B01D0012300E0002318460C37BD465DF8047B704700BF80B483B000AF7860D0
S224402CC00B46FB7000BF7B685B6903F40073002BF9D0FA787B68DA6100BF7B685B6903F442
S224402CE00073002BF9D00C37BD465DF8047B704780B483B000AF78607B685B6903F00103CB
S224402D0018460C37BD465DF8047B704780B483B000AF78607B685B6918460C37BD465DF8B1
S224402D20047B704780B483B000AF786039607B683A689A600C37BD465DF8047B704700BF82
S224402D4080B483B000AF786039607B683A68DA600C37BD465DF8047B704700BF80B483B0F1
S224402D6000AF78607B681B6918460C37BD465DF8047B704780B483B000AF786000BF7B6861
S224402D805B6903F00103002BF9D07B689B69DBB218460C37BD465DF8047B704780B582B035
S224402DA000AF786039603B68B3F5003F03D27B683A685A6209E03B68002B06D0044800F045
S224402DC0BBFA044800F0B8FAFEE70837BD4680BDCC9A4000D09A400080B582B000AF786069
S224402DE039607B685B6803F00903002B03D03B68B3F1807F08D37B685B6803F00903002B61
S224402E0006D03B68FF2B03D87B683A689A6202E0024800F091FA0837BD4680BDF49A40007A
S224402E2080B483B000AF78600B46FB70FB78002B04D07B684FF400421A6003E07B684FF446
S224402E4000621A600C37BD465DF8047B704700BF80B483B000AF786039603B68C3F31102CE
S224402E607B685A650C37BD465DF8047B704700BF80B483B000AF78600B46FB70FA787B68DC
S224402E809A650C37BD465DF8047B704780B483B000AF78607B685B6903F0020318460C37EF
S224402EA0BD465DF8047B704780B500AF0020FEF715FB0120FEF712FB80BD00BF80B500AF33
S224402EC01F4B1B780133DAB21D4B1A701C4B1B780B2B1BD00B2B04DC012B07D0032B1CD0B0
S224402EE02DE00D2B20D0652B25D028E00020FEF711FB0120FEF70EFB124806210122FDF7F3
S224402F0075FC03461A46104B1A7018E00020FEF701FB0120FEF7FEFA11E00020FEF72CFB29
S224402F200120FEF729FB0AE00020FEF725FB0120FEF722FB03E0024B00221A7000BF80BDE8
S224402F40BD0A4020D1304000BE0A402080B483B000AF0346FB71084997F907305B09FA79E2
S224402F6002F01F02012000FA02F241F823200C37BD465DF8047B704700E100E080B483B075
S224402F8000AF0346FB71094997F907305B09FA7902F01F02012000FA02F2603341F8232067
S224402FA00C37BD465DF8047B704700BF00E100E080B483B000AF03463960FB7197F9073050
S224402FC0002B0BDA0D49FB7903F00F03043B3A68D2B25201D2B20B441A7609E0084997F9E8
S224402FE007303A68D2B25201D2B20B4483F800230C37BD465DF8047B704700BF00ED00E00E
S22440300000E100E080B582B002AF2E20FEF7D8FB104B009310484FF408414FF4E1320F4BFA
S224403020FEF71AFF2E20FFF7A9FF2E200121FFF7BFFF09480121FEF735FF07480121FEF72B
S22440304047FF05480121FEF7CFFF2E20FFF77EFFBD4680BDFD304000001E0E4080D1F00890
S22440306080B400AF064B074A1A60054B1B68064A1360064B00221A80BD465DF8047B7047DB
S224403080140B4020240B4020200B4020180B402080B500AF05480221FEF7B4FF044B054A35
S2244030A01A60054B00221A8080BD00BF001E0E401C0B4020D00040201A0B402080B500AFBD
S2244030C0FFF7A0FFFFF7CCFFFFF7E2FF80BD00BF80B500AF054B064A1A60064BDF221A8098
S2244030E005480221FEF780FF80BD00BF1C0B4020D00040201A0B4020001E0E4080B500AF1F
S2244031000D4B1B88002B12D00C4B1B681B780C481946FEF74FFF094B1B680133074A136030
S224403120054B1B88013B9AB2034B1A8003E004480221FEF767FF80BD1A0B40201C0B4020F1
S224403140001E0E4080B400AF1846BD465DF8047B704700BF80B584B000AF7860284A7B68EB
S22440316013600023FB6041E026480521FFF71AF97968FA6813469B0013449B000B440833A8
S2244031805B681846FEF71CFB7968FA6813469B0013449B000B4498687968FA6813469B000E
S2244031A013449B000B4410335B6840F6CA011A46154BFFF75FFC7968FA6813469B001344E3
S2244031C09B000B449B6818460121FFF77DFC7968FA6813469B0013449B000B449B681846F5
S2244031E00121FFF7CFFCFB680133FB607B681B781A46FB689A42B7DC1037BD4680BD00BFC7
S224403200C80A4020209B400080D1F00880B584B000AF03463960FB713B685B78002B01D01B
S224403220122200E003223B689B781B029BB21343FB601F4B1968FA7913469B0013449B00FB
S2244032400B449B681846F968FFF702FE00BF184B1968FA7913469B0013449B000B449B68D4
S2244032601846FFF713FE0346002BF0D0104B1968FA7913469B0013449B000B449A683B6847
S2244032801B7810461946FFF7F3FD094B1968FA7913469B0013449B000B449B685B6905482A
S2244032A0194600F049F8002318461037BD4680BDC80A40205C9B400080B483B000AF034669
S2244032C03960FB71002318460C37BD465DF8047B704700BF0A4C0546206800B5C06885B058
S2244032E05AB11446074A02948DE806001A4606492B4600F00DF802F087FA044A1446F2E7B9
S224403300180640206C9B40007C9B4000789B40000EB410B583B0074B014605AC186854F829
S224403320042B2346019400F0E9F803B0BDE8104003B07047180640200FB410B582B0074BAE
S22440334004AC186854F8042B81682346019400F00FFF02B0BDE8104004B070471806402008
S224403360024B01461868826804F0D4BE180640202DE9F8433B4E04460D46904637681E46B6
S22440338017B1BB6B002B3FD0B8F1020F32D85FEAD6792FD12146384603F0F6FAA189C4F8B6
S2244033A004900B06C4F8189028D421F08301B8F1020F89B2A1812BD0002D37D0B8F1010F2F
S2244033C012D089B2284B01F00800FB63256080B22561666180B111F0030F4FF0000018BF63
S2244033E00646A660BDE8F88341F001017342A181A361E6E74FF0FF30BDE8F88321693846A5
S22440340003F01EFCA189D0E7384603F057FBBBE7002004F1430341F0020100250122A1811B
S224403420A560236023616261BDE8F883002E08BF4FF48066304603F015FF054628B1A1896F
S22440344041F0800189B2A181B8E74FF4806003F009FF054618B9A1894FF0FF30D9E74FF4A4
S2244034608066ECE718064020B56940004B6E2DE9F0479C040F4692462AD5936812682BB34D
S224403480804602F1080919E96000B60816D0043D002401E0A6420FD0404655F8041F3A4694
S2244034A0013403F06DFB431CF4D10023CAF80830CAF80430BDE8F087DAF80830A3EB8603C3
S2244034C009F10809CAF80830002BDCD10020ECE703F08EFC0023CAF80830CAF80430BDE8A2
S2244034E0F08700BF936810B41BB15DF8044BFFF7BDBF184653605DF8044B70472DE9F04FEF
S2244035001C46ADB0924601910290069418B1836B002B00F0DE80019B99898AB2900408D477
S2244035201D4641F400515B6E8AB2A98123F400536B66110740F1AD80019B1B69002B00F042
S224403540A88002F01A020A2A00F0AF800DF1700B00235C460A93119303931093CDF83CB034
S2244035609AF800305546252B1CD00BB91AE01BB115F8013F252BFAD1B5EB0A0612D0109B3E
S224403580119A0133C4F800A032446660072B1093119279DD002A40F0A584039B5C4610923C
S2244035A0334403932B78002B00F03A8300214FF000034FF0FF38681C8DF8373089466B7843
S2244035C046460D4600F1010AA3F12002582A00F20183DFE812F04702FF02FF025502FF02B1
S2244035E0FF02FF02FF02FF02FF025B026802FF028101BA01FF0287028D028D028D028D02B6
S2244036008D028D028D028D028D02FF02FF02FF02FF02FF02FF02FF02FF02FF02FF029B02F3
S224403620FF02FF02FF02FF02FF02FF02FF02FF02FF02FF02B602FF02FF02FF02FF02FF027E
S224403640CE02FF02FF02E602FF02FF02FF02FF02FF02FF02FF02FF02FF02FF0219022B0219
S224403660FF02FF02FF0213022B02FF02FF02F901FF02020287016D028102FF029801FF02AA
S2244036808100FF02FF02D5010834039B3344039388E70298019902F055F8A8B9019B9A89A3
S2244036A002F01A020A2A7FF451AF019BB3F90E30002BFFF64BAF019952462346029800F04B
S2244036C017FD2DB0BDE8F08F4FF0FF302DB0BDE8F08F03F0F3F91EE719F0200F0595B04675
S2244036E0069A00F04F820732012322F0070202F10801D2E9006706914FF000020025CDF8CC
S22440370010808DF83720B8F1000F01DB29F08009B8F1000F40F0948256EA070214BF012285
S2244037200022002A40F08C82002B40F0728319F0010F00F0A3832CAB302203F8412DC3EBFB
S2244037400B080893049B4345B8BF43461F4605B1013719F0020C00D0023719F084030793B2
S22440376040F04782059BDD1B002D40F34282102D40F38B84DDF840E01023119ABD4E71463B
S224403780CDF82CC006E011464FF0010E5C46103D102D20DD481C1032266001F1020E072822
S2244037A063601192014604F108041090EFDD002AE9D002980FAA01995C460993FFF756FE52
S2244037C0002840F03482103D1099119A102D01F1010E099BDEDCDDF82CC071462A44072943
S2244037E0266065601192109100F330839DF837300834481C002B40F00482BCF1000F0CD03A
S22440380002320EA9022307281090119284E80A0000F3F882014608340130079B802B00F00D
S2244038209882049BC8EB0305002D38DD102D924EC8BF102307DC28E04FF0010E11465C4684
S224403840103D102D20DD481C1032266001F1020E072863601192014604F108041090EFDD25
S224403860002AE9D002980FAA01995C460493FFF7FDFD002840F0DB81103D1099119A102D78
S22440388001F1010E049BDEDC70462A440728266065601192109000F3EF810834013002EBEB
S2244038A008030728089A1193109084E8040140F3F081002B40F0F28219F0040F109340F0D0
S2244038C0D682039B059A9742ACBFDB199B18039300235C46109343E6504649F004099AF88E
S2244038E000306FE619F020030595B04600F03181069A0023073222F0070202F10801D2E9D2
S22440390000670691F8E6069AB04605951368161D4FF0000208938DF83720002B00F0BB8397
S224403920B8F1000FC0F29883089D00214246284603F04CFF002800F0BE830023C5EB00088F
S22440394006969DF837500493FCE69AF800300AF101002A2B00F0B883A3F1300282460026FF
S224403960092A3FF631AE06EB86061AF8013B02EB4606A3F13002092AF5D946EAE67623E65B
S2244039803E4A19F0200F0595B0460A928DF8371000F01181069A073222F0070202F10801B8
S2244039A0D2E90067069119F0010F00F04D8256EA070200F0498230228DF8393049F00209A9
S2244039C002238DF8382097E69AF800306C2B00F0378349F010095046F4E519F0200F8DF8A2
S2244039E0371000F005830399069ACF1708461368043239460692C3E90001B1E549F04009C6
S224403A009AF800305046DDE5069A01274FF00001059513680432B8468DF83710069212AAD6
S224403A208DF8483008920023049392E619F0200F0595B0468DF8371071D00699073121F0BB
S224403A400701D1E90023083116461F460691002A73F10003C0F2B1829DF837500123CDF830
S224403A60108050E69AF80030504600297FF4AAAD2021A7E5F09B4000B09B4000D49B40001E
S224403A8049F001099AF8003050469BE5069A15681346002D03F10403C0F2DA8206935046EB
S224403AA09AF800308EE59AF8003050462B2189E5069878223023B04601468DF83920AA4AE0
S224403AC049F0020904318DF83830059502230668002706910A920FE649F020099AF800309B
S224403AE050466FE549F080099AF80030504669E5A3F13002002505EB85051AF8013B02EB8F
S224403B004505A3F13002092AF5D95DE549F010090595B0468DF8371019F0200F8DD1069A29
S224403B2019F0100F134640F0C48119F0400F00F0C081B2F900600433F717069332463B46DF
S224403B4085E749F010090595B04619F020037FF4CFAE19F0100240F0B38119F0400300F0FB
S224403B60AF810699134600270A460E8804320692C2E549F010090595B046069A19F0200F9C
S224403B807FF4B1AD19F0100F134640F0A58119F0400F00F0A1811688043200270123069217
S224403BA0AAE5724A19F0200F0595B0468DF837100A927FF4EFAE069919F0100F0A4640F0EE
S224403BC0868119F0400F00F0828104320E8800270692E8E605958DF837100BB38DF84830D4
S224403BE04FF0000301278DF8373012ABB846089319E71099119A481C9DF83730002B3FF4C2
S224403C00FCAD01320DF13701012307281090119284E80A0000F3E780014608340130ECE562
S224403C20119B23B102980FAA0199FFF71FFC019B9B895B063FF548AD03982DB0BDE8F08FDB
S224403C40012B00F01F81022B40F0E7805A46DDF828E0330906F00F00390943EA07730F46A3
S224403C601E461EF8003002F8013D56EA0703F0D10892C2EB0B0865E5002A40F06781012209
S224403C80089943465C461C91CDF87480CDF84480109204F1080219F0040F47D00599CD1BCA
S224403CA0002D43DD102D40F3018210981024304EDDF80880DDF8049006E04FF0010E1846CD
S224403CC05A46103D102D1DDD411C1033166000F1020E072954601193084602F108021091F0
S224403CE0EFDD002BE9D00FAA40464946FFF7BEFB5A4600289BD1103D1098119B102D00F14F
S224403D00010EE1DC2B44BEF1070F166055601193CDF840E00ADD002B3FF4D3AD02980FAA92
S224403D200199FFF7A3FB002881D1119B039A05998F42ACBFD21952180392002B3FF4C8ADB6
S224403D4002980FAA0199FFF791FB00283FF4C0AD6DE7059BDD1B002D7FF763AD102D40F3D8
S224403D60B081044E10230EE0D49B4000C09B4000F09B4000B09B40004FF0010E11465C4673
S224403D80103D102D20DD481C1032266001F1020E072863601192014604F108041090EFDDE0
S224403DA0002AE9D002980FAA01995C460793FFF75DFB00287FF43BAF103D1099119A102D01
S224403DC001F1010E079BDEDC2A44BEF1070F266065601192CDF840E000F3B18008340EF1DC
S224403DE0010071461DE5002A40F08B80BCF1000F00F083800EAA022118465C461C920A46D7
S224403E001D9107E5002A40F08D80012011465C4603E59046CDF820B094E45946F20806F0E8
S224403E200703F80842EA477230330746164601F8013D56EA0702F1D119F0010F089140F01E
S224403E409280C1EB0B087DE4022355E4002A40F0E6809DF83730002B00F0BB8001230DF159
S224403E6037025C461C9218461D931A46D4E6059AD51B5A46002D3FF715AF22E59846CDF84C
S224403E8020B05FE4002F08BF0A2E79D22CAB303603F8416DC3EB0B08089353E402980FAA85
S224403EA00199FFF7E3FA00287FF4C1AE119B5A46F1E61E680433F717069332463B46C6E51B
S224403EC0069900270A460E680432069214E4166804320027069266E504321E680027012386
S224403EE0069209E402980FAA0199FFF7BFFA00287FF49DAE5C46FFF7C8BB184611465C4604
S224403F008BE402980FAA0199CDF824C0FFF7AEFA00287FF48CAE10995C46119A481CDDF8B5
S224403F2024C06AE402980FAA0199FFF79FFA00287FF47DAE10995C46119A481C6DE4002AF3
S224403F4040F09580012011465C466AE402980FAA0199FFF78BFA00287FF469AE10985C460B
S224403F60119A01309BE4302B089B22D0013B1A4608933023C2EB0B0801F8013CFFF7E2BB9E
S224403F80D846304639460A22002305F0C1F902F1300E3046394600230A2208F801ED05F073
S224403FA0B7F906460F4656EA0703EAD14346CDF82080C3EB0B08FFF7C5BB2D257642CDF872
S224403FC010804FF0010367EB47078DF83750FFF79ABB114601205C46BCF1000F3FF421ACFC
S224403FE00EAA0223CBF800201A46CBF8043011E419F0100F0BD119F0400F08D0069A136821
S22440400004320692BDF80C201A80FFF7A9BA069A136804320692039A1A60FFF7A1BA0298CE
S2244040200FAA0199CDF824C0FFF720FA00287FF4FEAD10995C46119A481CDDF824C0DBE516
S22440404049F020090AF101009AF80130FFF7BABA6D420693504640E40898069604F040FB23
S224404060002380469DF837500493FFF76BBB02980FAA0199FFF7FAF900287FF4D8AD1099A4
S2244040805C46119A481CFFF7CCBB1099119A0131144EFFF7A3BBB8F1060F134B069628BFD2
S2244040A04FF00608089328EAE877BCE410990D4E01F1010E26E6069604909DF83750FFF76F
S2244040C041BB8646094E7FE6069A9AF8013016680432002E0692BFF675AA4FF0FF36FFF7FC
S2244040E071BA00BFF09B4000E89B4000B09B40002DE9F0478D89ADF58E6D88464FF4806681
S22440410025F002051CACB8F80EA00027ADF8145002A9D8F82450814602940195D8F8645082
S22440412006941B95D8F81C50ADF816A00995019D08970B9504960796FFF7E0F9041E07DBD4
S224404140484602A902F020FCB84218BF4FF0FF34BDF814305B0605D5B8F80C3043F04003FA
S224404160A8F80C3020460DF58E6DBDE8F08700BF2DE9F04FC1B01C4689460546099208906B
S22440418002F0FAFF03680C941846159304F0A8FA16901DB1AB6B002B00F0F380B9F80C2053
S2244041A093B29E040AD442F40052D9F8641093B221F40051A9F80C20C9F864101D0740F126
S2244041C0AA80D9F81020002A00F0A58003F01A030A2B00F0AC800DF1C0080023C346139337
S2244041E014931293179319930A9325932493CDF88C80099A1378252B00F0C7800BB9C4E0DE
S2244042001BB112F8013F252BFAD109991446551A11D0249B259A0133CBF800102A44CBF826
S2244042200450072B2493259200F394800BF1080B0A9B2B440A932378002B00F09380002392
S2244042404FF0FF3C611C66781A4664468DF86F300B9306934B1CA6F12001582900F2C18309
S224404260DFE811F07203BF03BF037903BF03BF03BF03BF03BF03BF0380038E03BF03010257
S2244042803B02BF039203990399039903990399039903990399039903BF03BF03BF03BF03C1
S2244042A0BF03BF03BF03BF03BF03BF03A002B802BF03B802BF03BF03BF03BF03EC02BF039D
S2244042C0BF03F302BF03BF03BF03BF03BF031003BF03BF032603BF03BF03BF03BF03BF038E
S2244042E0BF03BF03BF03BF03BF034B035402B802B802B80292025402BF03BF037602BF0335
S22440430080020802A8039902BF031A02BF039500BF03BF035E030898494601F013FAA0B9E6
S224404320B9F80C3003F01A030A2B7FF454AFB9F90E30002BFFF64FAF4946099A2346089847
S22440434001F0C0F941B0BDE8F08F4FF0FF3041B0BDE8F08F0898494623AAFFF7C3F840B930
S224404360C34665E7259B23B10898494623AAFFF7B9F8B9F80C305A06E7D40A9841B0BDE82C
S224404380F08F089802F09AFB08E7099C53E70993A446069B980640F17F820C9F0123073760
S2244043A027F0070202F10801D2E900450C910022CDF840C017468DF86F20BCF1000F03DB0D
S2244043C0069A22F080020692BCF1000F40F09C8354EA050214BF01220022002A40F09483F3
S2244043E0002B40F05084069AD20740F1EB840DF5807A30230AF8413DCAEB0804CDF83CA0FF
S224404400A4456346B8BF234607930023119317B1079B01330793069B13F002030D9302D031
S224404420079B02330793069B13F084030E9340F0F7820B9B079AC2EB030ABAF1000F40F363
S224404440EF82BAF1100F259940F3BE87BE4F10251896249A3E462746089C04E0AAF1100ACA
S224404460BAF1100F1BDD01321031CBF800600BF1080B072A4BF8045C25912492EEDD20461E
S224404480494623AAC346FFF72DF800287FF471AFAAF1100A2599249ABAF1100FE3DC3C4660
S2244044A03746189E01320AEB010CCBF80070072ACDF894C02492CBF804A000F3A6820BF19E
S2244044C0080B9DF86F7097B1249B01220CF1010C0DF16F011344CBF80420CDF894C0072BE5
S2244044E0CBF80010249300F3DF830BF1080B0D9B8BB1249B0CF1020C1CA902220133CDF8F9
S22440450094C0CBF80010072B2493CBF8042000F3D7830BF1080B0E9B802B00F01183109B80
S2244045201F1B002F37DD102F249B40F353860D944FF0100A854D6246089C02E0103F102F27
S22440454019DD01331032CBF800500BF1080B072B4BF804AC25922493F0DD2046494623AA66
S224404560C346FEF7BFFF00287FF403AF103F259A249B102FE5DC0D9C94460133BC44CBF8A6
S2244045800050072BCDF894C02493CBF8047000F37F830BF1080B069BDF0500F14482249B4E
S2244045A0A4440F9A0133CDF894C0CBF80020072BCBF80440249300F350830BF1080B069B8F
S2244045C0590740D50B9B079A9C1A002C3BDD102C249B40F33E8710255B4F6246089E02E0DE
S2244045E0103C102C19DD01331032CBF800700BF1080B072B4BF8045C25922493F0DD3046BA
S224404600494623AAC346FEF76DFF00287FF4B1AE103C259A249B102CE5DC94460133A444D8
S224404620CBF80070072BCDF894C02493CBF8044009DD0898494623AAFEF754FF00287FF434
S22440464098AEDDF894C00A9B079A0B998A42ACBF9B185B180A93BCF1000F40F00A83002326
S224404660C3462493C5E5194606981E7840F004000690EFE50993A446069B13F0200300F01D
S224404680EF800C9F0023073727F0070202F10801D2E900450C918AE60C9A0025099313684F
S2244046A0171D8DF86F500F93002B00F0D586002C0F98C0F27C862946224603F087F800282D
S2244046C000F08A870F9B0C97C41A10959DF86F7024EAE4731195079399E61E78591C2A2EC9
S2244046E000F0D487A6F130000B46002409283FF6B2AD04EB840413F8016B00EB4404A6F171
S22440470030000928F5D944EAE474A4E50993A446069B8DF86F209C064FD50C9F073727F015
S2244047200707D7E9002307F1080114461D460C91002A73F10003C0F273849DF86F70012316
S224404740CDF840C039E600BF249C4000009C40001E7806996C2E00F0C28541F010010691B6
S224404760194677E50993069B8DF86F209E0640F1ED840A990C9ACD17084613680432294607
S2244047800C92C3E9000134E5069941F04001069119461E785EE5069941F0200106911946A9
S2244047A01E7857E50993A446069B8DF86F2043F010030693069B9C06AFD4069BD80640F152
S2244047C0DC840C9A13461C680433E5170C9322462B46ADE70C9F099307378DF86F2027F0C2
S2244047E0070303F108020C921A6813925B68139814931499079403F0B1FE0128DDF81CC0CE
S22440480040F01A84139800220023149904F030FD002840F070869DF86F7003230698B44A43
S22440482000211C460793B34B20F080001091472ED8BF1A46069011910F92E8E5069941F005
S2244048400801069119461E7804E50993A446069B43F010030693069B13F020037FF411AF95
S224404860069A12F0100240F0D982069B13F0400300F0D4820C99134600250A460C8804324A
S2244048800C9294E50993A446069B43F010030693069B98063FF581AD069BD90640F17D8463
S2244048A00C9A134604321C68002501230C927EE50993A446904B8DF86F201793069B9A0650
S2244048C037D50C9F073727F0070303F10802D3E900450C92069BDF0740F1168254EA05034A
S2244048E000F01282069B30228DF8716043F002038DF870200693022359E50C9901200993FB
S22440490000230A6804311F468DF86F3010930446119326AB07900C918DF898200F937AE52B
S2244049200993A446754B8DF86F201793069B9A06C7D4069BDB0640F13E840C9A00251346B9
S224404940146804330C93C5E71E781946002A7FF481AC20227EE4069941F0010106911946E9
S2244049601E7877E40C9D296808460B912946002801F10401C0F2BA840C9119461E7869E480
S2244049801E7819462B2265E4069941F08001069119461E785EE4A6F13000002101EB8101D2
S2244049A013F8016B00EB4101A6F130000928F5D90B9150E40C9D30220698A44629460993EA
S2244049C0782340F0020004312C681E468DF871304A4B00250690179302230C918DF87020A1
S2244049E0E5E409938DF86F20002E3FF4BBAC0023012226A98DF8986007921F460F911446A7
S224404A008DF86F301093119305E50898494623AAFEF768FD00287FF4ACAC9DF86F70C34636
S224404A20DDF894C04FE5652E40F3C9801398002200231499CDF834C004F010FCDDF834C0A6
S224404A40002800F06481249B01220CF1010C2C491344CBF80420CDF894C0072BCBF8001057
S224404A60249300F3BA830BF1080B1D9B129A934203DB069BDE077FF5A2AD249B16990133F9
S224404A80159A8C44CBF80410072BCBF80020CDF894C0249300F331840BF1080B129B5C1EB8
S224404AA0002C7FF78CAD102C249B40F3BC851026144D6246089F03E0103C102C40F3B681AC
S224404AC001331032CBF800500BF1080B072B4BF8046C25922493EFDD3846494623AAC346F7
S224404AE0FEF700FD00287FF444AC259A249BE3E7149C4000109C4000C09B4000D49B400086
S224404B00209C4000009C4000012B00F04B81022B40F0E280C2461798230904F00F012A09B7
S224404B2043EA057315461C46435C0AF8013D54EA0503F1D15346CDF83CA0C3EB08045FE4B0
S224404B400B9B079A9F1A002F7FF7E9AC102F249B40F3F9840D944FF0100ABB4D6246089CDA
S224404B6002E0103F102F19DD01331032CBF800500BF1080B072B4BF804AC25922493F0DD92
S224404B802046494623AAC346FEF7ACFC00287FF4F0AB103F259A249B102FE5DC0D9C9446E2
S224404BA00133BC44CBF80050072BCDF894C02493CBF8047000F319820BF1080BAFE4129B53
S224404BC00CF10106249C012B40F3AF8101230F9A25961C44CBF80020CBF80430072C249490
S224404BE000F3BF810BF1080B169A0134159B1644072CCBF8003025962494CBF8042000F3CC
S224404C00C8810BF1080B002313980022149904F025FB129B002840F0DA80013B01340F9ACD
S224404C201E44072C02F1010224942596CBF80020CBF8043000F389810BF1080B199A013463
S224404C401FAB06EB020C072CCBF80420CDF894C02494CBF800307FF7B0AC0898494623AA9A
S224404C60FEF740FC00287FF484ABDDF894C0C346A5E40898494623AAFEF734FC00283FF4BD
S224404C80EEACFFF776BB1446CDF83C80FFF7B8BB0898494623AAFEF725FC00287FF469AB09
S224404CA0DDF894C0C34676E40898494623AAFEF719FC00287FF45DABDDF894C0C34616E44E
S224404CC00898494623AAFEF70DFC00287FF451ABDDF894C0C3461EE44146E20804F007035B
S224404CE0E80842EA457230330546144601F8013D54EA0502F1D1069A0F91D00700F182814B
S224404D00C1EB0804FFF77CBB0223FFF750BB1D9C002C40F36E82129A119913468A42A8BF59
S224404D200B460F991C468F18002C0EDD249BA444CBF800100133CDF894C0CBF80440072B15
S224404D40249300F345830BF1080B119B002CA8BF1B1B002B1C4640F38880102C249B40F322
S224404D606F841026384D6246DDF820A002E0103C102C6BDD01331032CBF800500BF1080BB9
S224404D80072B4BF8046C25922493F0DD5046494623AAC346FEF7A6FB00287FF4EAAA259A2F
S224404DA0249BE4E7002D08BF0A2C80F0FE800DF5807A30340AF8414DCAEB0804CDF83CA0BA
S224404DC0FFF71EBB1C46CDF83C80FFF719BB5F1E002F7FF733AF102F1B4DC8BF4FF0100A87
S224404DE004DCCAE0103F102F40F3C78001341036CBF800500BF1080B072C4BF804AC25965E
S224404E002494EFDD0898494623AAC346FEF76AFB00287FF4AEAA259E249CE3E70C99002560
S224404E200A460C6804320C92FFF7C1BA94460133A444CBF80050072BCDF894C02493CBF856
S224404E4004407FF7BAAB08E7009C400094460133A444CBF80050072BCDF894C02493CBF855
S224404E60044000F3EA820BF1080B0F9A11991D9B0A441646129A934245DB069AD40742D454
S224404E80129ABC1BD31A9C42A8BF1C46002C25460EDD249AA444CBF800600132CDF894C01F
S224404EA0CBF80440072A249200F39E820BF1080B002DACBF5C1B1C46002C7FF780AB102C23
S224404EC0249B40F3B0831026C14D6246089F02E0103C102CAADD01331032CBF800500BF15F
S224404EE0080B072B4BF8046C25922493F0DD3846494623AAC346FEF7F5FA00287FF439AAF5
S224404F00259A249BE4E7249A1698013215998444CBF80400072ACBF80010CDF894C0249254
S224404F2000F37E820BF1080BAAE7069BD8073FF54DAE01230F9A25961C44CBF80020CBF85C
S224404F400430072C24947FF777AE0898494623AAFEF7C8FA00287FF40CAA259EC346249CC2
S224404F606CE60898494623AAFEF7BCFA00287FF400AA259EC346249C36E601343E44CBF88C
S224404F800050072C25962494CBF804707FF754AEDBE70898494623AAFEF7A4FA00287FF43B
S224404FA0E8A9259EC346249C2DE6C246CDF81CC0204629460A22002304F0AAF902F1300EE7
S224404FC02046294600230A220AF801ED04F0A0F904460D4654EA0503EAD1DDF81CC0CAEBE7
S224404FE00804CDF83CA0FFF70BBA0898494623AAFEF778FA00287FF4BCA9DDF894C0C3466F
S224405000FFF78DBA302B0F9B3FF497AD013B1A460F933023C2EB080401F8013CFFF7F0B973
S2244050202D276442CDF840C04FF0010365EB45058DF86F70FFF7C1B913981499CDF81CC0C2
S22440504003F08CFADDF81CC0002800F02881BCF1FF3F26F0200A00F05D81BAF1470F40F0F6
S2244050605B81BCF1000F40F05781069B4FF0470A4FF0010C43F480730E93149B002BC0F277
S224405080CB821D46139F00230D9302201DA9CDF804C03A4600901EA8029121A903902B46FE
S2244050A008980491CDF81CC000F056FCBAF1470F0F90DDF81CC040F0FE82069BDB0740F1DE
S2244050C0B4820F9B03EB0C043846002200232946CDF81CC004F0C2F8DDF81CC0002840F023
S2244050E03082219B9C4206D930215A1C21921970219B9C42F9D80F9ABAF1470FA3EB020395
S22440510012931D9B40F0FD819C45C0F21F82D91CC0F21C8267261193129B119A934200F375
S2244051207282069BDF0700F18D82144622EAE27C0D9B002B40F0FA810E9BCDF81CC006938A
S2244051400D9B9DF86F701093FFF761B9069BDD060BD4069B5C0608D50C9A136804320C9203
S224405160BDF828201A80FFF744B80C9A136804320C920A9A1A60FFF73CB8069B0C9A13F01A
S224405180400F13463FF41FABB2F900400433E5170C9322462B46FFF7CBBA069B0C9A13F0CA
S2244051A0400F13463FF47EAB14880432002501230C92FFF7FCB8069B0C9A13F0400F134651
S2244051C067D00433148800250C93FFF783BB00BF009C4000A74DFFF7D0B90898494623AA7E
S2244051E0FEF780F900287FF4C4A8DDF894C0C3463BE4249B01220CF1010C9F491344CBF8B6
S2244052000420CDF894C0072BCBF80010249359DC0BF1080B2CB9129B1BB9069BDD077FF5AD
S224405220CEA9249B1699013315980CEB0102CBF80410072BCBF800002592249300F3D681E5
S2244052400BF1080B6442002C40F3A180102C894D40F3D9801026089F03E0103C102C40F3BB
S224405260D28001331032CBF800500BF1080B072B4BF8046C25922493EFDD3846494623AA06
S224405280C346FEF72FF900287FF473A8259A249BE3E70433146800250C93FFF71BBB069CC0
S2244052A00321764A764B24F080041090472ED8BF1A46069407910C4611900F929DF86F7026
S2244052C0FFF7A5B80898494623AAFEF70BF900287FF44FA81D9CC346DDF894C09AE741F012
S2244052E020015E780691591CFEF7B4BF0B980C91194640420B90FFF7B7B90898494623AAE0
S224405300FEF7F0F800287FF434A8DDF894C0C346FFF7C4BB4FF0060C069B43F480730E9390
S224405320149B002BC0F278811D46139F00230D93BAF1460F00F0AA80BAF1450F7FF4A5AEEC
S2244053400CF10104CDF81CC00DF1740E0DF1840C1EA80221CDF810C03A4603902B460194C0
S2244053600091CDF808E0089800F0F6FADDF81CC00F900F9B1C44A7E60898494623AAFEF752
S224405380B1F800287EF4F5AF259AC346249B1298013302EB000C072B0F9ACDF894C0CBF8CC
S2244053A000202493CBF804007FF707A955E4109503F096F920EAE0730C97044611950793FA
S2244053C09DF86F70FFF723B8249A2E4FFFF76AB80898494623AAFEF785F800287EF4C9AF70
S2244053E0DDF894C0C346B0E40898494623AAFEF779F800287EF4BDAF1D9BC346129ADDF8F8
S22440540094C0D31A54E501332244CBF80050072B25922493CBF80440AEDC0BF1080BB6E743
S2244054200898494623AAFEF75DF800287EF4A1AF1D9BC346DDF894C022E50898494623AA0A
S224405440FEF750F800287EF494AFDDF894C0C3460BE50C4FFFF7E2B8062C0C9710931F4603
S22440546028BF0624119724EAE4730793064B0F93FEF7CDBF009C4000209C40001C9C4000EB
S224405480189C4000249C4000E89B400003201DA93A46CDF804C000901EA8029121A92B46FA
S2244054A0039004910898CDF81CC000F055FADDF81CC00246037862440F90302B079240F022
S2244054C0B6803846002200232946CDF840C04FF0010403F0C3FEDDF840C008B14FF0000491
S2244054E014F0FF0F00F0A380CCF101041D94079B23441C46E8E52D231F468DF86F30FFF7C8
S2244055008CB9652E23DD662E11937FF405AE002B40F3AA80BCF1000F40F08B80069BDA070F
S22440552000F18780119C24EAE47C01E60E9B2D27CDF81CC0069300238DF86F701093FEF7D6
S22440554067BF2346D7E55D4DFFF72ABB023E013B8DF87C60002B1D93C0F281802B228DF8F9
S2244055607D20092B73DD0DF18B000146544A82FB0324DA17C2EBA40404EB8402092CA3EB35
S2244055804202234602F1300201F8012DEEDC30330A46DBB202F8013D904240F289800A462E
S2244055A00DF17E0401E012F8013B824204F8013BF9D123AB0DF17E025B1A13441FAA9B1AA3
S2244055C0129A012A199302EB030457DD01340023119324EAE47CABE524EAE4730C97109039
S2244055E09DF86F7007931190FEF711BF0898494623AAFDF777FF00287EF4BBAE1D9CC346C7
S224405600259A249B1EE6119B002B3CDD0124129B1C4424EAE47C8BE5149B139F03F1004529
S2244056202D230D9384E6254D01E4219B63E51D9C5DE70CF10104119B1C4424EAE47C77E59B
S2244056401E4D04E4119B5C1C24EAE47C70E5303330228DF87F3020AB8DF87E20AEE72D2210
S2244056605B428DF87D207CE7BCF1000F1BD1069BDB0718D44FF0010C644659E5069B13F0D4
S2244056800103A5D0A2E7C3F10204C0E70C9D5E7828462C680430002C0C90BEF6DBAD4FF06A
S2244056A0FF34FEF7D7BD0CF1020424EAE47C3FE50DF17E0382E764465BE600BF009C4000E6
S2244056C0676666662DE9F0478D89ADF58E6D88464FF4806625F002051CACB8F80EA000278C
S2244056E0ADF8145002A9D8F82450814602940195D8F8645006941B95D8F81C50ADF816A015
S2244057000995019D08970B9504960796FEF730FD041E07DB484602A901F036F9B84218BF42
S2244057204FF0FF34BDF814305B0605D5B8F80C3043F04003A8F80C3020460DF58E6DBDE838
S224405740F08700BF38B52F4B05460C46186810B1836B002B36D0A28993B218070BD5206972
S224405760A0B113F001021DD1990700D46269A260F8B1002038BDD9063BD5580725D42069D0
S22440578042F0080293B2A2810028EAD103F42072B2F5007FE5D02846214601F0F1FCA389FA
S2244057A02069DEE7636900225B42A260A3610028DFD1A3891A06DDD543F040034FF0FF300B
S2244057C0A38138BD01F07AF9C5E7216B49B104F14003994203D0284601F032FAA289002316
S2244057E0236322F024020023206992B284E80900C6E742F0400209234FF0FF302B60A281D8
S22440580038BD00BF1806402008B5062002F006FF0120FAF717FF00BF2DE9F04F036983B05C
S2244058200F699F4200F39380013F01F1140600F1140ABB0056F827201D46009301325AF89E
S22440584027300AEB050406EB0509B3FBF2F80194B8F1000F40D00025B446D6462B465CF8BA
S22440586004BBDEF800201FFA8BF4E1454FEA1B4B04FB08550BFB08FBACB20BEB1545A3EB30
S22440588004031FFA85FB13FA82F44FEA1545CBEB12421FFA84FB02EB24434BEA03424FEA64
S2244058A023434EF8042BDAD2009B5AF803309BB9019C231F9A450ED254F8043C5BB9A4F1D5
S2244058C0080301E0126832B99A451A4607F1FF37A3F10403F6D30761044602F02DFB00286D
S2244058E031DB08F101085546002056F8041B2A688BB2B1454FEA1141A0EB0303C1EB12414D
S22440590013FA82F301EB23429BB24FEA224043EA024345F8043BE8D25AF827200AEB8703C7
S2244059208AB91A1F92450DD253F8042C52B9083B01E0126832B99A451A4607F1FF37A3F1E0
S2244059400403F6D32761404603B0BDE8F08F002003B0BDE8F08F00BF2DE9F04F9B4699B018
S224405960036C04469246259D4BB1466C01221946B2405E609A6002F0E9F800232364BBF18C
S224405980000FD94633DB00232B60994B1A4609EA0303934214D0002200235046594603F075
S2244059A05DFC804648B30123249A1360269B002B00F0CB808F481860013819B0BDE8F08F97
S2244059C042F20F73249A1360BAF1000F00F0A6808948269B002BF0D0C378002B00F0B780C1
S2244059E000F10803269A136019B0BDE8F08F01232BF000492B60CB46C7E717AD16A920468B
S224405A00524600955B46019102F02CFB06905FEA195540F08C80DDF858806FF48263179D96
S224405A2045449D42C0F2CC811F3305F212425B1B2AFA02F009FA03F949EA000003F030F943
S224405A40013D0123A1F1F871119300226B4B02F0E9FF61A3D3E9002303F098F960A3D3E928
S224405A60002302F0E1FF06460F46284603F028F95DA3D3E9002303F089F902460B46304666
S224405A80394602F0D1FF06460F4603F019FC0022029039463046002303F0EAFB002840F0DB
S224405AA07181029B162B00F291800298524654495B4601EBC001D1E9000103F0F7FB0028E9
S224405AC000F07C81029B013B029300230D93C5EB08056B1E039300F16C8100230793029B4F
S224405AE0002BC0F25D81039A0C9311461944002303910A93229B092B2BD8052B40F37E8607
S224405B00043B00252293229B023B032B00F27986DFE813F09B02890280018D06C9F3130039
S224405B20354B384A002814BF1846104651E7CBF31303CDF844805046A5F2FF3543F07F5176
S224405B40DDF8588041F440117FE72F4835E7C31C48E74FF0FF33002120461D4610930123A4
S224405B60616423910B9301F0C9FF239B0590229304952064029A179B0E2A49DC002B47DBF3
S224405B801F4B029A03EBC203D3E90089049B002B00F35E82239B002B80F25A82049B002B24
S224405BA040F0BF850022194B4046494603F0EEF852465B4603F070FB049F0897002800F0C7
S224405BC0BD80239B059DDB430293BEE001230D937DE700BFAFF3008061436F63A787D23FD4
S224405BE0B3C8608B288AC63FFB799F501344D33F0000F07F219C4000409C40000000F83FB8
S224405C00509C4000349C4000209C4000000014400B9A002A40F0E1800B9B0A9E079D0893C6
S224405C20039900290B460ADD002D08DDA942079AA8BF2B46D21AED1ACB1A079203930A9B00
S224405C40002B1BDD0B9B002B00F0CE84002E11DD08993246204602F0C5F8069F01460890FB
S224405C603A46204602F01CF8034639462046069301F06CFF0A9B9A1B40F0FF84204601213B
S224405C8002F004F80C9B0746002B40F3828201461A46204602F0A6F8229B0746012B40F375
S224405CA0F3844FF000083B6907EB8303186901F099FFC0F12000039B184410F01F0000F0E1
S224405CC0A082C0F12003042B40F39285C0F11C00079B054403440793039B03440393079B5A
S224405CE0002B05DD06991A46204602F0CBF80690039B002B05DD39461A46204602F0C2F806
S224405D0007460D9B002B40F08B83229B022B40F37A82049B002B00F37682049B002B7FF4D5
S224405D2050AF39460522204601F01AFF07460698394602F001F900287FF743AF029A312333
S224405D4001320292059A551C13703946204601F0FDFE089B1BB10899204601F0F7FE204611
S224405D60069901F0F3FE0022029B2A700133249A1360269B002B00F0A38205981D6019B0BB
S224405D80BDE8F08F029802F09BFF32463B4603F065FA00287FF485AE029B013B029380E687
S224405DA0079A029BD21A5B420A93002307920C93A0E65B4207930023039390E60D9086E6EA
S224405DC0BD4B5B1B0AFA03F038E600214FF0FF322391012104920B911092229A012A40F396
S224405DE06084049B5E1E0A9BB342C0F205849E1B049B002BC0F26184079D049B079A204626
S224405E0001211A440792039A1A44039201F03EFF089005E701230B93239B002B40F3DF83A2
S224405E200E2B8CBF002505F001051E46109304930021172E616409D9012204235B001146D2
S224405E40013203F11400B042F8D96164204601F055FE05902064002D3FF48CAE029800281B
S224405E60CDE90EAB40F33382944A00F00F03051102EBC303EA06D3E9006740F11C82904B20
S224405E805046594605F00F054FF00308D3E9082303F0A6F882468B468DB1DFF82492EB0767
S224405EA03046394607D508F10108D9E9002302F06DFF06460F466D1009F10809EFD1504608
S224405EC0594632463B4603F08BF8CDE908010D9B43B100227B4BDDE9080103F0C9F9002880
S224405EE040F09383404602F0EBFEDDE9082302F04DFF754B002202F097FD049B0646A1F1A2
S224405F005077002B00F06181029BDDF810C014930B9B002B00F00B82684B0020059A03EBE1
S224405F20CC036A49551CCDF848C053E9022303F057F832463B4602F075FD82468B46DDE9FD
S224405F4008894946404603F0BBF9064602F0B8FE024630360B464046494602F063FD059FB1
S224405F6080468946F6B25046594642464B463E7003F09CF9002840F0438242464B460020C5
S224405F80504902F04FFD02460B465046594603F08DF9002840F0EB80DDF848C0BCF1010F41
S224405FA040F39281059F1294674408970EE00020444902F037FD52465B4603F059F900285B
S224405FC040F0A183089B9D4200F07D815046594600223F4B02F0DAFE00223D4B82468B46CA
S224405FE04046494602F0D2FE06460F4603F068F9044602F065FE02460B46303430463946FF
S224406000E6B202F00FFD8046894652465B4605F8016B03F02DF942464B460028C7D0149BCE
S224406020129C02939BE600230B93239B029A134410930133002B049340F3C982049E0E2EF0
S2244060408CBF002505F00105F2E600230B93E3E6059942464B4650464D1C594602F0C0FF28
S224406060564603F02DF9824602F02AFE42464B4602F08CFE02460B463046594602F0D2FC41
S2244060800AF13003059A06460F461370049B012B4DD000220E4B02F079FE0022002306466D
S2244060A00F4603F0DBF800287FF459AE0394DDF814B0049C19E000BFEEFBFFFF509C400043
S2244060C0289D40000000F03F00001C400000E03F0000244002F05AFE0022002306460F4638
S2244060E003F0BCF8002840F0E58242464B463046394602F075FF03F0E3F8824602F0E0FD1C
S22440610042464B4602F042FE02460B463046394602F088FC0AF1300E06460F4605F801EB28
S224406120CBEB050E0022B84B7445D3D1039C32463B463046394602F077FC06460F464046B6
S224406140494632463B4603F093F860B94046494632463B4603F082F800283FF400AE1AF04D
S224406160010F3FF4FCAD029B149315F8016C6A1E059B04E09A4200F0778212F8016D392E80
S22440618002F10105F6D0731C1499DBB202911370E5E5229B012B40F361814FF000080C9B66
S2244061A0002B7FF480AD012085E5404602F088FD02460B46DDE9080102F0E8FD0022934B08
S2244061C002F032FC0646A1F150770022904BDDE9080102F027FC32463B468046894603F053
S2244061E065F80546002840F09F8032464046494607F1004303F03CF8002865D02F460895DD
S224406200DFE41C2064E50B9B002B40F04F81DDF814A0069E5546DDF8108002E001F0A0FC84
S224406220064639463046FFF7F7FA00F130093146204605F8019BCAEB050E0A220023C6452F
S224406240ECDB059B4FF0000A049A0696012AACBF9B1801331D4606990122204601F012FE06
S2244062603946069001F068FE002840F34E8215F8012C6B1E059904E08B4200F00B8213F8A8
S224406280012D392A03F10105F6D001321A703946204601F05BFC089B002B3FF460AD9A4591
S2244062A03FF459ADBAF1000F3FF455AD5146204601F04CFC4FE5DDE90EAB4FF00208EBE56F
S2244062C00598FFF77ABB129CDDE90EAB52E4029B5D42002D00F0C18105F00F024D4B03EB27
S2244062E0C203DDE90E01D3E9002302F04FFD2D11CDE9080100F07582474E4FF00208024698
S2244063000B46EF071046194607D508F10108D6E9002302F03BFD02460B466D1006F1080637
S224406320EFD1CDE90823D2E50027089706E50CF1FF3B384932463B4601EBCB01CDF854C0CD
S224406340059FD1E9000102F021FD7D1CDDE90889CDE912014946404602F0B2FF064602F0DA
S224406360AFFC02460B4640464946303602F05AFBDDF854C080468946BCF1010F3E7020D0F9
S224406380059B4046AA46A84603EB0C07B94600221D4B02F0FBFC0F46064602F091FF0546D3
S2244063A002F08EFC02460B4630353046394602F039FB0AF8015BCA45E9D1454689468046BC
S2244063C05D440022154BDDE9120102F02DFB42464B4602F04DFF00287FF4C7AE00200F4983
S2244063E0DDE9122302F01EFB42464B4602F05EFF08B969E7154615F8013C6A1E302BF9D088
S224406400149B0293ABE400BF0000244000001C4000001440509C4000289D40000000E03F41
S2244064200698394601F088FD0028BFF66EAC029E002306992046013E0A22029601F090FB46
S2244064400B9B06901BBB229B022B40F3CE81109B002B00F3CA81109B04935EE4BAF1000F27
S2244064607FF49BAECBF31303002B7FF496AE2BF00046360D3605002E00F08A81079B4FF07C
S224406480010801330793039B0133039387E60023089920460A2201F063FB229B0890022BE4
S2244064A002DD109B002BD6DD109B0493002D05DD08992A46204601F0E5FC0890B8F1000F45
S2244064C040F03381089E0AF00101049B229A013B0B910599B2FA82F20A97CB188846DDF8D9
S2244064E020B00C935309069F03930A9D38462946FFF792F959468146384601F01DFD2946DE
S22440650032468246204601F03BFDC268054609F1300C0792002A50D129463846CDF818C04E
S22440652001F00AFD29460490204601F00FFB039A049BDDF818C032B12BB90B9B079A002B98
S22440654000F028811346BAF1000FC0F2BC80039A32B1BAF1000F03D10B9A002A00F0B3805C
S224406560002B00F3FE800C9B08F1010988F800C098454D4600F0068139460A220023204635
S22440658001F0EEFAB3450746594620464FF00A024FF000030BD001F0E3FA314683460A22F1
S2244065A02046002301F0DCFAC84606469DE701F0D7FAC8468346064697E701462046CDF893
S2244065C010C001F0C3FA0123DDF810C0BBE70E2B8CBF0023012300211D40616436E4012341
S2244065E0239310930493F6E7069920460A9A01F0F9FB0690FFF742BB0A9B0C9AF31A0A967A
S22440660000261A440C92FFF7F3BB049B002B3FF4CCAD109D002D7FF757AE0022864BDDE9EB
S224406620080102F0B3FB029B06460F46013B08F10100CDE90867149302F042FB02460B4664
S2244066403046394602F0A2FB00227C4B02F0ECF9AC460646A1F150775AE4DDE90E234FF0A6
S2244066600208CDE9082332E4149B302101331170029331231370FFF772BB0699204601F09A
S224406680B1FB0690FFF7FABABAF1000F3FF4EAAEFFF707BB029A312301320292059A1370B3
S2244066A0F5E5119A002A55D003F233430A9E079DFFF7A4BB039CFFF752BB079B049A9D1A1C
S2244066C00023FFF79BBB002B0697E146CDF820B00A9F65460FDD06990122204601F0D2FB5C
S2244066E03946069001F028FC002875DDB9F1390F66D009F10105DDF820A088F8005008F12B
S22440670001050896C3E5129C31E504D119F0010F01D0ACE5154615F8013C6A1E302BF9D083
S224406720B5E500270897FFF74CBA089E2046716801F0E4F93369054606F10C019A1C0C3028
S224406740920001F08BF820462946012201F09AFB0646B8E6169B0A9E079DC3F13603FFF7A6
S2244067604DBBBCF1390F0697CDF820B00A9F30D00CF10109DDF820A008F10105089688F843
S224406780009084E50697E146DA460A9F089662E5B04604E5BCF1390F0697CDF820B05546A8
